{
  "_format": "hh-sol-artifact-1",
  "contractName": "TourFI",
  "sourceName": "contracts/TourFI.sol",
  "abi": [
    {
      "inputs": [
        {
          "internalType": "address",
          "name": "_treasury",
          "type": "address"
        },
        {
          "internalType": "address",
          "name": "_signerAddress",
          "type": "address"
        },
        {
          "internalType": "address",
          "name": "_initialOwner",
          "type": "address"
        }
      ],
      "stateMutability": "nonpayable",
      "type": "constructor"
    },
    {
      "inputs": [
        {
          "internalType": "uint256",
          "name": "bookingId",
          "type": "uint256"
        }
      ],
      "name": "BookingAlreadyPaid",
      "type": "error"
    },
    {
      "inputs": [],
      "name": "ECDSAInvalidSignature",
      "type": "error"
    },
    {
      "inputs": [
        {
          "internalType": "uint256",
          "name": "length",
          "type": "uint256"
        }
      ],
      "name": "ECDSAInvalidSignatureLength",
      "type": "error"
    },
    {
      "inputs": [
        {
          "internalType": "bytes32",
          "name": "s",
          "type": "bytes32"
        }
      ],
      "name": "ECDSAInvalidSignatureS",
      "type": "error"
    },
    {
      "inputs": [
        {
          "internalType": "uint256",
          "name": "expected",
          "type": "uint256"
        },
        {
          "internalType": "uint256",
          "name": "provided",
          "type": "uint256"
        }
      ],
      "name": "InsufficientPayment",
      "type": "error"
    },
    {
      "inputs": [],
      "name": "InvalidSignature",
      "type": "error"
    },
    {
      "inputs": [
        {
          "internalType": "address",
          "name": "owner",
          "type": "address"
        }
      ],
      "name": "OwnableInvalidOwner",
      "type": "error"
    },
    {
      "inputs": [
        {
          "internalType": "address",
          "name": "account",
          "type": "address"
        }
      ],
      "name": "OwnableUnauthorizedAccount",
      "type": "error"
    },
    {
      "inputs": [],
      "name": "ReentrancyGuardReentrantCall",
      "type": "error"
    },
    {
      "inputs": [],
      "name": "WithdrawalFailed",
      "type": "error"
    },
    {
      "anonymous": false,
      "inputs": [
        {
          "indexed": true,
          "internalType": "uint256",
          "name": "bookingId",
          "type": "uint256"
        },
        {
          "indexed": true,
          "internalType": "address",
          "name": "traveler",
          "type": "address"
        },
        {
          "indexed": false,
          "internalType": "uint256",
          "name": "amount",
          "type": "uint256"
        }
      ],
      "name": "BookingCreated",
      "type": "event"
    },
    {
      "anonymous": false,
      "inputs": [
        {
          "indexed": true,
          "internalType": "uint256",
          "name": "bookingId",
          "type": "uint256"
        },
        {
          "indexed": true,
          "internalType": "address",
          "name": "traveler",
          "type": "address"
        },
        {
          "indexed": false,
          "internalType": "uint256",
          "name": "amount",
          "type": "uint256"
        }
      ],
      "name": "BookingPaid",
      "type": "event"
    },
    {
      "anonymous": false,
      "inputs": [
        {
          "indexed": false,
          "internalType": "uint256",
          "name": "amount",
          "type": "uint256"
        }
      ],
      "name": "FundsTransferredToTreasury",
      "type": "event"
    },
    {
      "anonymous": false,
      "inputs": [
        {
          "indexed": true,
          "internalType": "address",
          "name": "to",
          "type": "address"
        },
        {
          "indexed": false,
          "internalType": "uint256",
          "name": "amount",
          "type": "uint256"
        }
      ],
      "name": "FundsWithdrawn",
      "type": "event"
    },
    {
      "anonymous": false,
      "inputs": [
        {
          "indexed": true,
          "internalType": "address",
          "name": "previousOwner",
          "type": "address"
        },
        {
          "indexed": true,
          "internalType": "address",
          "name": "newOwner",
          "type": "address"
        }
      ],
      "name": "OwnershipTransferred",
      "type": "event"
    },
    {
      "anonymous": false,
      "inputs": [
        {
          "indexed": true,
          "internalType": "uint256",
          "name": "bookingId",
          "type": "uint256"
        },
        {
          "indexed": true,
          "internalType": "address",
          "name": "payer",
          "type": "address"
        },
        {
          "indexed": false,
          "internalType": "uint256",
          "name": "amount",
          "type": "uint256"
        }
      ],
      "name": "PaymentProcessed",
      "type": "event"
    },
    {
      "anonymous": false,
      "inputs": [
        {
          "indexed": true,
          "internalType": "address",
          "name": "oldSigner",
          "type": "address"
        },
        {
          "indexed": true,
          "internalType": "address",
          "name": "newSigner",
          "type": "address"
        }
      ],
      "name": "SignerUpdated",
      "type": "event"
    },
    {
      "anonymous": false,
      "inputs": [
        {
          "indexed": true,
          "internalType": "address",
          "name": "oldTreasury",
          "type": "address"
        },
        {
          "indexed": true,
          "internalType": "address",
          "name": "newTreasury",
          "type": "address"
        }
      ],
      "name": "TreasuryUpdated",
      "type": "event"
    },
    {
      "stateMutability": "payable",
      "type": "fallback"
    },
    {
      "inputs": [
        {
          "internalType": "uint256",
          "name": "",
          "type": "uint256"
        }
      ],
      "name": "bookings",
      "outputs": [
        {
          "internalType": "uint256",
          "name": "id",
          "type": "uint256"
        },
        {
          "internalType": "address",
          "name": "traveler",
          "type": "address"
        },
        {
          "internalType": "uint256",
          "name": "amount",
          "type": "uint256"
        },
        {
          "internalType": "uint256",
          "name": "timestamp",
          "type": "uint256"
        },
        {
          "internalType": "bool",
          "name": "isPaid",
          "type": "bool"
        },
        {
          "internalType": "string",
          "name": "metadataURI",
          "type": "string"
        }
      ],
      "stateMutability": "view",
      "type": "function"
    },
    {
      "inputs": [
        {
          "internalType": "uint256",
          "name": "bookingId",
          "type": "uint256"
        }
      ],
      "name": "getBookingDetails",
      "outputs": [
        {
          "components": [
            {
              "internalType": "uint256",
              "name": "id",
              "type": "uint256"
            },
            {
              "internalType": "address",
              "name": "traveler",
              "type": "address"
            },
            {
              "internalType": "uint256",
              "name": "amount",
              "type": "uint256"
            },
            {
              "internalType": "uint256",
              "name": "timestamp",
              "type": "uint256"
            },
            {
              "internalType": "bool",
              "name": "isPaid",
              "type": "bool"
            },
            {
              "internalType": "string",
              "name": "metadataURI",
              "type": "string"
            }
          ],
          "internalType": "struct TourFI.Booking",
          "name": "",
          "type": "tuple"
        }
      ],
      "stateMutability": "view",
      "type": "function"
    },
    {
      "inputs": [
        {
          "internalType": "uint256",
          "name": "bookingId",
          "type": "uint256"
        }
      ],
      "name": "getBookingPaymentStatus",
      "outputs": [
        {
          "components": [
            {
              "internalType": "bool",
              "name": "isPaid",
              "type": "bool"
            },
            {
              "internalType": "bool",
              "name": "existsInChain",
              "type": "bool"
            },
            {
              "internalType": "bool",
              "name": "paidInChain",
              "type": "bool"
            },
            {
              "internalType": "bool",
              "name": "paidInRegistry",
              "type": "bool"
            },
            {
              "internalType": "uint256",
              "name": "timestamp",
              "type": "uint256"
            },
            {
              "internalType": "address",
              "name": "traveler",
              "type": "address"
            }
          ],
          "internalType": "struct TourFI.PaymentStatus",
          "name": "status",
          "type": "tuple"
        }
      ],
      "stateMutability": "view",
      "type": "function"
    },
    {
      "inputs": [],
      "name": "getContractBalance",
      "outputs": [
        {
          "internalType": "uint256",
          "name": "",
          "type": "uint256"
        }
      ],
      "stateMutability": "view",
      "type": "function"
    },
    {
      "inputs": [
        {
          "internalType": "uint256",
          "name": "bookingId",
          "type": "uint256"
        }
      ],
      "name": "isBookingPaid",
      "outputs": [
        {
          "internalType": "bool",
          "name": "",
          "type": "bool"
        }
      ],
      "stateMutability": "view",
      "type": "function"
    },
    {
      "inputs": [],
      "name": "owner",
      "outputs": [
        {
          "internalType": "address",
          "name": "",
          "type": "address"
        }
      ],
      "stateMutability": "view",
      "type": "function"
    },
    {
      "inputs": [
        {
          "internalType": "uint256",
          "name": "",
          "type": "uint256"
        }
      ],
      "name": "paidBookings",
      "outputs": [
        {
          "internalType": "bool",
          "name": "",
          "type": "bool"
        }
      ],
      "stateMutability": "view",
      "type": "function"
    },
    {
      "inputs": [
        {
          "internalType": "uint256",
          "name": "bookingId",
          "type": "uint256"
        },
        {
          "internalType": "bytes",
          "name": "signature",
          "type": "bytes"
        }
      ],
      "name": "payBooking",
      "outputs": [],
      "stateMutability": "payable",
      "type": "function"
    },
    {
      "inputs": [
        {
          "internalType": "uint256",
          "name": "bookingId",
          "type": "uint256"
        },
        {
          "internalType": "bytes",
          "name": "signature",
          "type": "bytes"
        }
      ],
      "name": "processPayment",
      "outputs": [],
      "stateMutability": "payable",
      "type": "function"
    },
    {
      "inputs": [
        {
          "internalType": "uint256",
          "name": "bookingId",
          "type": "uint256"
        },
        {
          "internalType": "address",
          "name": "traveler",
          "type": "address"
        },
        {
          "internalType": "uint256",
          "name": "amount",
          "type": "uint256"
        },
        {
          "internalType": "string",
          "name": "metadataURI",
          "type": "string"
        }
      ],
      "name": "registerBooking",
      "outputs": [],
      "stateMutability": "nonpayable",
      "type": "function"
    },
    {
      "inputs": [],
      "name": "renounceOwnership",
      "outputs": [],
      "stateMutability": "nonpayable",
      "type": "function"
    },
    {
      "inputs": [],
      "name": "signerAddress",
      "outputs": [
        {
          "internalType": "address",
          "name": "",
          "type": "address"
        }
      ],
      "stateMutability": "view",
      "type": "function"
    },
    {
      "inputs": [
        {
          "internalType": "address",
          "name": "newOwner",
          "type": "address"
        }
      ],
      "name": "transferOwnership",
      "outputs": [],
      "stateMutability": "nonpayable",
      "type": "function"
    },
    {
      "inputs": [],
      "name": "treasury",
      "outputs": [
        {
          "internalType": "address",
          "name": "",
          "type": "address"
        }
      ],
      "stateMutability": "view",
      "type": "function"
    },
    {
      "inputs": [
        {
          "internalType": "address",
          "name": "_newSigner",
          "type": "address"
        }
      ],
      "name": "updateSigner",
      "outputs": [],
      "stateMutability": "nonpayable",
      "type": "function"
    },
    {
      "inputs": [
        {
          "internalType": "address",
          "name": "_newTreasury",
          "type": "address"
        }
      ],
      "name": "updateTreasury",
      "outputs": [],
      "stateMutability": "nonpayable",
      "type": "function"
    },
    {
      "inputs": [
        {
          "internalType": "uint256",
          "name": "bookingId",
          "type": "uint256"
        },
        {
          "internalType": "uint256",
          "name": "amount",
          "type": "uint256"
        },
        {
          "internalType": "address",
          "name": "payer",
          "type": "address"
        },
        {
          "internalType": "bytes",
          "name": "signature",
          "type": "bytes"
        }
      ],
      "name": "verifySignature",
      "outputs": [
        {
          "internalType": "bool",
          "name": "",
          "type": "bool"
        }
      ],
      "stateMutability": "view",
      "type": "function"
    },
    {
      "inputs": [],
      "name": "withdrawAllToTreasury",
      "outputs": [],
      "stateMutability": "nonpayable",
      "type": "function"
    },
    {
      "inputs": [
        {
          "internalType": "address payable",
          "name": "to",
          "type": "address"
        },
        {
          "internalType": "uint256",
          "name": "amount",
          "type": "uint256"
        }
      ],
      "name": "withdrawFunds",
      "outputs": [],
      "stateMutability": "nonpayable",
      "type": "function"
    },
    {
      "stateMutability": "payable",
      "type": "receive"
    }
  ],
  "bytecode": "0x6080346100f357601f6200150c38819003918201601f19168301916001600160401b038311848410176100f8578084926060946040528339810103126100f3576100488161010e565b60406100566020840161010e565b926001600160a01b0391829161006c910161010e565b169182156100da57816000549460018060a01b03199480868816176000558260405197167f8be0079c531659141344cd1fd0a4f28419497f9722a3daafe3b4186f6b6457e0600080a36001805516836002541617600255169060045416176004556113e99081620001238239f35b604051631e4fbdf760e01b815260006004820152602490fd5b600080fd5b634e487b7160e01b600052604160045260246000fd5b51906001600160a01b03821682036100f35756fe6080604081815260048036101561001e575b505050361561001c57005b005b600092833560e01c9081630864315d14610ca9575080631dab301e14610c2b578063555c35b314610b205780635b7633d014610af75780635e4919551461085957806361d027b3146108325780636b7b0533146106dc5780636f9fb98a146106c1578063715018a6146106675780637934f4ed1461059b5780637f51bb1f146105335780638da5cb5b146105075780638db3ed601461041d578063a7ecd37e146103b2578063a8cce4111461034c578063bd5955811461028a578063c1075329146101ad578063ea3cc767146101815763f2fde38b03610011573461017d57602036600319011261017d57610111610e84565b9061011a61116b565b6001600160a01b0391821692831561016757505082546001600160a01b0319811683178455167f8be0079c531659141344cd1fd0a4f28419497f9722a3daafe3b4186f6b6457e08380a380f35b51631e4fbdf760e01b8152908101849052602490fd5b8280fd5b503461017d57602036600319011261017d578160209360ff923581526003855220541690519015158152f35b50903461017d578060031936011261017d5781356001600160a01b0381169081900361028657602435906101df61116b565b6101e7611197565b47821161024357848080938382947feaff4b37086828766ad3268786972c0cd24259d4c87a80f9d3963a3c3d999b0d60208951858152a25af1610228610f7d565b501561023657826001805580f35b516327fcd9d160e01b8152fd5b825162461bcd60e51b8152602081860152601d60248201527f496e73756666696369656e7420636f6e74726163742062616c616e63650000006044820152606490fd5b8380fd5b50903461017d578260031936011261017d576102a461116b565b6102ac611197565b4791821561031357838061030c9481947f13906bd786732878c6bc7cebee2a40cc62fccfdfa493b901661801b1d1a99ec36020849660018060a01b03905416926102f7841515610f3e565b51848152a15af1610306610f7d565b50610fad565b6001805580f35b6020606492519162461bcd60e51b835282015260146024820152734e6f2066756e647320746f20776974686472617760601b6044820152fd5b5091346103af5760803660031901126103af57604435906001600160a01b03821682036103af576064359067ffffffffffffffff82116103af5750926103a69161039b60209536908401610f20565b916024359035610ff9565b90519015158152f35b80fd5b83346103af5760203660031901126103af576103cc610e84565b6103d461116b565b600280546001600160a01b039283166001600160a01b0319821681179092559091167f2d025324f0a785e8c12d0a0d91a9caa49df4ef20ff87e0df7213a1d4f3157beb8380a380f35b50903461017d57602092836003193601126103af57908061050392606060a0835161044781610d2f565b838152838982015283858201528383820152836080820152015284358152600586522081519361047685610d2f565b8154855260018060a01b0380600184015416938787019485526002840154918188019283526104c3600560ff60038801549660608c01978852880154169660808b01971515885201610d9f565b9560a089019687528251998a99818b5251908a015251169087015251606086015251608085015251151560a08401525160c08084015260e0830190610e44565b0390f35b50503461052f578160031936011261052f57905490516001600160a01b039091168152602090f35b5080fd5b83823461052f57602036600319011261052f5761054e610e84565b61055661116b565b81546001600160a01b039182166001600160a01b031982168117909355167f4ab5be82436d353e61ca18726e984e561f5c1cc7c6d38b29d2553c790434705a8380a380f35b50908060031936011261017d5781359160243567ffffffffffffffff8111610663576105ca9036908301610f20565b6105d2611197565b838552600360205260ff838620541661064d576105f190333486610ff9565b1561063f57508183526003602052808320600160ff1982541617905551903482527f354a7e09d58acfc69c01f51ad9c6b43c46501b660e7790d744ee8421936e3d3b60203393a36001805580f35b9051638baa579f60e01b8152fd5b50826024925191631ae9c71560e11b8352820152fd5b8480fd5b83346103af57806003193601126103af5761068061116b565b80546001600160a01b03198116825581906001600160a01b03167f8be0079c531659141344cd1fd0a4f28419497f9722a3daafe3b4186f6b6457e08280a380f35b50503461052f578160031936011261052f5751478152602090f35b50908060031936011261017d5781356024359167ffffffffffffffff83116106635761070e6107309336908601610e9f565b85546001600160a01b03959291906107299087161515610f3e565b3691610ee9565b828652600360205260ff828720541661081b5761074f90333485610ff9565b1561080c57846107f69481948483959484958552600360205280852060ff19906001828254161790558151348152837f354a7e09d58acfc69c01f51ad9c6b43c46501b660e7790d744ee8421936e3d3b60203393a382865260056020528186208560038201546107f9575b50505051903482527fb19be13e74a9b76b93dd9f38fbcc483a12851ce1288dac91d1120d5ddd8749b960203393a3349154165af1610306610f7d565b80f35b60019101918254161790553880856107ba565b51638baa579f60e01b81528390fd5b8151631ae9c71560e11b8152808601849052602490fd5b503461017d578260031936011261017d575490516001600160a01b03909116815260209150f35b5091903461052f57608036600319011261052f576024356001600160a01b0381811692853592849003610663576044359067ffffffffffffffff606435818111610af3576108aa9036908a01610e9f565b6108b595919561116b565b868952602095600587526003858b200154610ab757845188949392600592888c898f878e6108e289610d2f565b8c895280890194855283890195865261090b60608a019742895260808b0199858b523691610ee9565b9c60a08a019d8e5283525220945185556001968786019151166bffffffffffffffffffffffff60a01b8254161790555160028401555160038301558c82019051151560ff80198354169116179055019251998a51928311610aa457506109718354610cf5565b601f8111610a5e575b508599601f83116001146109dd5782918a9b83927f0303b7d3e01f9add26263f7746cf07cc567c8711ba4d0dcb43d346deb7fbd9909a9b9c946109d2575b50501b916000199060031b1c19161790555b51908152a380f35b0151925038806109b8565b601f9291921982169a848b52878b20918b5b8d8110610a495750837f0303b7d3e01f9add26263f7746cf07cc567c8711ba4d0dcb43d346deb7fbd9909a9b9c9d10610a30575b505050811b0190556109ca565b015160001960f88460031b161c19169055388080610a23565b818301518455928501929189019189016109ef565b838a52868a20601f840160051c810191888510610a9a575b601f0160051c019082905b828110610a8f57505061097a565b8b8155018290610a81565b9091508190610a76565b634e487b7160e01b8a5260419052602489fd5b845162461bcd60e51b8152808c018890526016602482015275426f6f6b696e6720616c72656164792065786973747360501b6044820152606490fd5b8780fd5b50503461052f578160031936011261052f5760025490516001600160a01b039091168152602090f35b5082903461052f576020928360031936011261017d5760c0938360a08351610b4781610d2f565b828152828482015282858201528260608201528260808201520152823584526005815260038285200154151580926003835260ff81872054169482610c17575b50841580610c0d575b8160019697600586522093600385015494878060a01b039788910154169560a0845199610bbc8b610d2f565b1515998a8152838101928352858101941585526060810196151587526080810197885201968752835198895251151590880152511515908601525115156060850152516080840152511660a0820152f35b9194508491610b90565b60058452818720015460ff16915087610b87565b5091346103af5760203660031901126103af578161050391843581526005602052209182549260018060a01b03600182015416946002820154610c7c600560ff600386015494860154169401610d9f565b9380519788978852602088015286015260608501521515608084015260c060a084015260c0830190610e44565b918491503461052f57602036600319011261052f57602093813583526003855260ff8184205416928315610ce1575b50505015158152f35b60ff93506005865220015416838080610cd8565b90600182811c92168015610d25575b6020831014610d0f57565b634e487b7160e01b600052602260045260246000fd5b91607f1691610d04565b60c0810190811067ffffffffffffffff821117610d4b57604052565b634e487b7160e01b600052604160045260246000fd5b6040810190811067ffffffffffffffff821117610d4b57604052565b90601f8019910116810190811067ffffffffffffffff821117610d4b57604052565b90604051918260008254610db281610cf5565b90818452602094600191600181169081600014610e225750600114610de3575b505050610de192500383610d7d565b565b600090815285812095935091905b818310610e0a575050610de19350820101388080610dd2565b85548884018501529485019487945091830191610df1565b92505050610de194925060ff191682840152151560051b820101388080610dd2565b919082519283825260005b848110610e70575050826000602080949584010152601f8019910116010190565b602081830181015184830182015201610e4f565b600435906001600160a01b0382168203610e9a57565b600080fd5b9181601f84011215610e9a5782359167ffffffffffffffff8311610e9a5760208381860195010111610e9a57565b67ffffffffffffffff8111610d4b57601f01601f191660200190565b929192610ef582610ecd565b91610f036040519384610d7d565b829481845281830111610e9a578281602093846000960137010152565b9080601f83011215610e9a57816020610f3b93359101610ee9565b90565b15610f4557565b60405162461bcd60e51b815260206004820152601060248201526f151c99585cdd5c9e481b9bdd081cd95d60821b6044820152606490fd5b3d15610fa8573d90610f8e82610ecd565b91610f9c6040519384610d7d565b82523d6000602084013e565b606090565b15610fb457565b60405162461bcd60e51b815260206004820152601b60248201527f5472616e7366657220746f207472656173757279206661696c656400000000006044820152606490fd5b60409384519361100885610d61565b600985526110298360209668189bdbdada5b99d25960ba1b888201526111ba565b61104f84875161103881610d61565b6006815265185b5bdd5b9d60d21b888201526111ba565b61107481875161105e81610d61565b60058152643830bcb2b960d91b88820152611212565b855193858501938452868501526bffffffffffffffffffffffff199060601b16606084015260548352608083019183831067ffffffffffffffff841117610d4b576110fc936110f39387525190207f19457468657265756d205369676e6564204d6573736167653a0a333200000000600052601c52603c600020611262565b9092919261129e565b6111668160018060a01b03936f7265636f76657265644164647265737360801b85600254169661114f88825161113181610d61565b600d81526c7369676e65724164647265737360981b86820152611212565b519161115a83610d61565b60108352820152611212565b161490565b6000546001600160a01b0316330361117f57565b60405163118cdaa760e01b8152336004820152602490fd5b6002600154146111a8576002600155565b604051633ee5aeb560e01b8152600490fd5b6000919082916111ff60405180926111eb6020830195632d839cb360e21b8752604060248501526064840190610e44565b90604483015203601f198101835282610d7d565b51906a636f6e736f6c652e6c6f675afa50565b6000919082916111ff6040518092611243602083019563319af33360e01b8752604060248501526064840190610e44565b6001600160a01b0391909116604483015203601f198101835282610d7d565b81519190604183036112935761128c92506020820151906060604084015193015160001a90611323565b9192909190565b505060009160029190565b600481101561130d57806112b0575050565b600181036112ca5760405163f645eedf60e01b8152600490fd5b600281036112eb5760405163fce698f760e01b815260048101839052602490fd5b6003146112f55750565b602490604051906335e2f38360e21b82526004820152fd5b634e487b7160e01b600052602160045260246000fd5b91907f7fffffffffffffffffffffffffffffff5d576e7357a4501ddfe92f46681b20a084116113a757926020929160ff608095604051948552168484015260408301526060820152600092839182805260015afa1561139b5780516001600160a01b0381161561139257918190565b50809160019190565b604051903d90823e3d90fd5b5050506000916003919056fea2646970667358221220b37bbc23cdd26902525f381938773a14c5a8ccb2ec8c5d6409955e91c6f223f264736f6c63430008180033",
  "linkReferences": {},
  "deployedLinkReferences": {}
}